{
  "contractName": "Cryptomart",
  "abi": [
    {
      "constant": true,
      "inputs": [],
      "name": "seller",
      "outputs": [
        {
          "name": "",
          "type": "address"
        }
      ],
      "payable": false,
      "stateMutability": "view",
      "type": "function"
    },
    {
      "constant": true,
      "inputs": [],
      "name": "buyer",
      "outputs": [
        {
          "name": "",
          "type": "address"
        }
      ],
      "payable": false,
      "stateMutability": "view",
      "type": "function"
    },
    {
      "constant": true,
      "inputs": [
        {
          "name": "",
          "type": "uint256"
        }
      ],
      "name": "products",
      "outputs": [
        {
          "name": "id",
          "type": "uint256"
        },
        {
          "name": "name",
          "type": "string"
        },
        {
          "name": "cost",
          "type": "uint256"
        },
        {
          "name": "owner",
          "type": "address"
        },
        {
          "name": "purchase",
          "type": "bool"
        }
      ],
      "payable": false,
      "stateMutability": "view",
      "type": "function"
    },
    {
      "constant": true,
      "inputs": [],
      "name": "sellerBalance",
      "outputs": [
        {
          "name": "",
          "type": "uint256"
        }
      ],
      "payable": false,
      "stateMutability": "view",
      "type": "function"
    },
    {
      "constant": true,
      "inputs": [],
      "name": "productCount",
      "outputs": [
        {
          "name": "",
          "type": "uint256"
        }
      ],
      "payable": false,
      "stateMutability": "view",
      "type": "function"
    },
    {
      "inputs": [],
      "payable": false,
      "stateMutability": "nonpayable",
      "type": "constructor"
    },
    {
      "anonymous": false,
      "inputs": [
        {
          "indexed": false,
          "name": "id",
          "type": "uint256"
        },
        {
          "indexed": false,
          "name": "owner",
          "type": "address"
        },
        {
          "indexed": false,
          "name": "purchase",
          "type": "bool"
        }
      ],
      "name": "buyedProduct",
      "type": "event"
    },
    {
      "constant": false,
      "inputs": [
        {
          "name": "_id",
          "type": "uint256"
        }
      ],
      "name": "buyProduct",
      "outputs": [],
      "payable": true,
      "stateMutability": "payable",
      "type": "function"
    }
  ],
  "bytecode": "0x6080604052600060035534801561001557600080fd5b50336000806101000a81548173ffffffffffffffffffffffffffffffffffffffff021916908373ffffffffffffffffffffffffffffffffffffffff1602179055506000809054906101000a900473ffffffffffffffffffffffffffffffffffffffff1673ffffffffffffffffffffffffffffffffffffffff16316001819055506100e2678ac7230489e800006040518060400160405280600681526020017f4c6170746f7000000000000000000000000000000000000000000000000000008152506101ce60201b60201c565b61012f6729a2241af62c00006040518060400160405280600981526020017f4865616470686f6e6500000000000000000000000000000000000000000000008152506101ce60201b60201c565b61017c676f05b59d3b2000006040518060400160405280600381526020017f4c656400000000000000000000000000000000000000000000000000000000008152506101ce60201b60201c565b6101c9671bc16d674ec800006040518060400160405280600881526020017f4b6579626f6172640000000000000000000000000000000000000000000000008152506101ce60201b60201c565b61039c565b6003600081548092919060010191905055506040518060a0016040528060035481526020018281526020018381526020016000809054906101000a900473ffffffffffffffffffffffffffffffffffffffff1673ffffffffffffffffffffffffffffffffffffffff1681526020016000151581525060046000600354815260200190815260200160002060008201518160000155602082015181600101908051906020019061027e9291906102f7565b506040820151816002015560608201518160030160006101000a81548173ffffffffffffffffffffffffffffffffffffffff021916908373ffffffffffffffffffffffffffffffffffffffff16021790555060808201518160030160146101000a81548160ff0219169083151502179055509050505050565b828054600181600116156101000203166002900490600052602060002090601f016020900481019282601f1061033857805160ff1916838001178555610366565b82800160010185558215610366579182015b8281111561036557825182559160200191906001019061034a565b5b5090506103739190610377565b5090565b61039991905b8082111561039557600081600090555060010161037d565b5090565b90565b610a7d806103ab6000396000f3fe6080604052600436106100555760003560e01c806308551a531461005a5780637150d8ae146100b15780637acc0b20146101085780638642269e14610208578063867a06b314610236578063e0f6ef8714610261575b600080fd5b34801561006657600080fd5b5061006f61028c565b604051808273ffffffffffffffffffffffffffffffffffffffff1673ffffffffffffffffffffffffffffffffffffffff16815260200191505060405180910390f35b3480156100bd57600080fd5b506100c66102b1565b604051808273ffffffffffffffffffffffffffffffffffffffff1673ffffffffffffffffffffffffffffffffffffffff16815260200191505060405180910390f35b34801561011457600080fd5b506101416004803603602081101561012b57600080fd5b81019080803590602001909291905050506102d7565b60405180868152602001806020018581526020018473ffffffffffffffffffffffffffffffffffffffff1673ffffffffffffffffffffffffffffffffffffffff16815260200183151515158152602001828103825286818151815260200191508051906020019080838360005b838110156101c95780820151818401526020810190506101ae565b50505050905090810190601f1680156101f65780820380516001836020036101000a031916815260200191505b50965050505050505060405180910390f35b6102346004803603602081101561021e57600080fd5b81019080803590602001909291905050506103d2565b005b34801561024257600080fd5b5061024b610935565b6040518082815260200191505060405180910390f35b34801561026d57600080fd5b5061027661093b565b6040518082815260200191505060405180910390f35b6000809054906101000a900473ffffffffffffffffffffffffffffffffffffffff1681565b600260009054906101000a900473ffffffffffffffffffffffffffffffffffffffff1681565b6004602052806000526040600020600091509050806000015490806001018054600181600116156101000203166002900480601f0160208091040260200160405190810160405280929190818152602001828054600181600116156101000203166002900480156103895780601f1061035e57610100808354040283529160200191610389565b820191906000526020600020905b81548152906001019060200180831161036c57829003601f168201915b5050505050908060020154908060030160009054906101000a900473ffffffffffffffffffffffffffffffffffffffff16908060030160149054906101000a900460ff16905085565b6103da610941565b600460008381526020019081526020016000206040518060a001604052908160008201548152602001600182018054600181600116156101000203166002900480601f01602080910402602001604051908101604052809291908181526020018280546001816001161561010002031660029004801561049b5780601f106104705761010080835404028352916020019161049b565b820191906000526020600020905b81548152906001019060200180831161047e57829003601f168201915b50505050508152602001600282015481526020016003820160009054906101000a900473ffffffffffffffffffffffffffffffffffffffff1673ffffffffffffffffffffffffffffffffffffffff1673ffffffffffffffffffffffffffffffffffffffff1681526020016003820160149054906101000a900460ff1615151515815250509050600073ffffffffffffffffffffffffffffffffffffffff166000809054906101000a900473ffffffffffffffffffffffffffffffffffffffff1673ffffffffffffffffffffffffffffffffffffffff1614156105e5576040517f08c379a00000000000000000000000000000000000000000000000000000000081526004018080602001828103825260138152602001807f53656c6c657220646f65736e742065786973740000000000000000000000000081525060200191505060405180910390fd5b6000809054906101000a900473ffffffffffffffffffffffffffffffffffffffff1673ffffffffffffffffffffffffffffffffffffffff163373ffffffffffffffffffffffffffffffffffffffff1614156106a8576040517f08c379a000000000000000000000000000000000000000000000000000000000815260040180806020018281038252601d8152602001807f53656c6c657220616e642062757965722063616e742062652073616d6500000081525060200191505060405180910390fd5b60046000838152602001908152602001600020600201543414610716576040517f08c379a0000000000000000000000000000000000000000000000000000000008152600401808060200182810382526024815260200180610a2e6024913960400191505060405180910390fd5b600181608001901515908115158152505033816060019073ffffffffffffffffffffffffffffffffffffffff16908173ffffffffffffffffffffffffffffffffffffffff16815250508060046000848152602001908152602001600020600082015181600001556020820151816001019080519060200190610799929190610988565b506040820151816002015560608201518160030160006101000a81548173ffffffffffffffffffffffffffffffffffffffff021916908373ffffffffffffffffffffffffffffffffffffffff16021790555060808201518160030160146101000a81548160ff0219169083151502179055509050506000809054906101000a900473ffffffffffffffffffffffffffffffffffffffff1673ffffffffffffffffffffffffffffffffffffffff166108fc349081150290604051600060405180830381858888f19350505050158015610875573d6000803e3d6000fd5b506000809054906101000a900473ffffffffffffffffffffffffffffffffffffffff1673ffffffffffffffffffffffffffffffffffffffff16316001819055507fc81c2b83621e9fc064ecf38e06ee3c08e5a5c65f77166528c48472bd87e414e78282606001516001604051808481526020018373ffffffffffffffffffffffffffffffffffffffff1673ffffffffffffffffffffffffffffffffffffffff16815260200182151515158152602001935050505060405180910390a15050565b60015481565b60035481565b6040518060a00160405280600081526020016060815260200160008152602001600073ffffffffffffffffffffffffffffffffffffffff1681526020016000151581525090565b828054600181600116156101000203166002900490600052602060002090601f016020900481019282601f106109c957805160ff19168380011785556109f7565b828001600101855582156109f7579182015b828111156109f65782518255916020019190600101906109db565b5b509050610a049190610a08565b5090565b610a2a91905b80821115610a26576000816000905550600101610a0e565b5090565b9056fe42757965722073686f756c6420627579207769746820636f727265637420616d6f756e74a165627a7a7230582005d1bb2d16097d3bbd26e2da27bcd27e9351be04de8ed4c7fe18eb11cdff893f0029",
  "source": "pragma solidity >0.4.25;\r\n\r\ncontract Cryptomart{\r\n\r\n    address payable public seller;\r\n    uint256 public sellerBalance;\r\n    address public buyer;\r\n    uint public productCount=0;\r\n    mapping(uint=>Product) public products;\r\n\r\n    struct Product{\r\n        uint id;\r\n        string name;\r\n        uint256 cost;\r\n        address payable owner;\r\n        bool purchase;\r\n    }\r\n    event buyedProduct(\r\n        uint id,\r\n        address payable owner,\r\n        bool purchase\r\n    );\r\n    constructor()public{\r\n        seller = msg.sender;\r\n        sellerBalance = address(seller).balance;\r\n        addProduct(10 ether,'Laptop');\r\n        addProduct(3 ether,'Headphone');\r\n        addProduct(8 ether,'Led');\r\n        addProduct(2 ether,'Keyboard');\r\n    }\r\n    function addProduct(uint _cost,string memory _name)private{\r\n        productCount++;\r\n        products[productCount] = Product(productCount,_name,_cost,seller,false);\r\n    }\r\n    function buyProduct(uint _id)public payable{\r\n\r\n        //Fetch the product\r\n        Product memory _product = products[_id];\r\n        //Seller should exist\r\n        require(seller!=address(0),'Seller doesnt exist');\r\n        //require(_product.purchase == false,'Products can be bought only once');\r\n        require(msg.sender!=seller,'Seller and buyer cant be same');\r\n        require(msg.value == products[_id].cost,'Buyer should buy with correct amount');\r\n        //Mark as purchased\r\n        _product.purchase = true;\r\n        //Transfer the ownership\r\n        _product.owner = msg.sender;\r\n        //Update the product\r\n        products[_id] = _product;\r\n        //Pay the seller by sending ether\r\n        address(seller).transfer(msg.value);\r\n        //Get the seller sellerBalance\r\n        sellerBalance = address(seller).balance;\r\n        //Trigger an event\r\n        emit buyedProduct(_id,_product.owner,true);\r\n    }\r\n}\r\n",
  "sourcePath": "E:/Godfather/Crypto-MART/contracts/CryptoMart.sol",
  "compiler": {
    "name": "solc",
    "version": "0.5.8+commit.23d335f2.Emscripten.clang"
  },
  "schemaVersion": "3.0.11",
  "updatedAt": "2019-09-23T13:46:57.469Z",
  "devdoc": {
    "methods": {}
  },
  "userdoc": {
    "methods": {}
  }
}